:020000040000FA
:10000000780800206D0200007102000073020000F9
:10001000750200007502000075020000000000007B
:100020000000000000000000000000007502000059
:10003000750200000000000075020000750200005B
:1000400075020000750200007502000075020000D4
:1000500075020000750200007502000075020000C4
:1000600075020000750200007502000075020000B4
:1000700075020000750200007502000075020000A4
:100080007502000075020000750200007502000094
:100090007502000075020000750200007502000084
:1000A0007502000075020000750200007502000074
:1000B0007502000075020000750200007502000064
:1000C000750200000D1C00007502000075020000A2
:1000D0007502000075020000750200007502000044
:1000E0007502000075020000750200007502000034
:1000F0007502000075020000750200007502000024
:100100007502000075020000750200007502000013
:100110007502000075020000750200007502000003
:1001200075020000750200007502000075020000F3
:1001300075020000750200007502000075020000E3
:1001400000000000000000000000000000000000AF
:1001500075020000750200007502000075020000C3
:10016000000000000000000000000000000000008F
:10017000000000000000000000000000000000007F
:10018000000000000000000000000000000000006F
:10019000000000000000000000000000000000005F
:1001A000000000000000000000000000000000004F
:1001B0007502000075020000750200007502000063
:1001C0007502000075020000750200007502000053
:1001D0007502000075020000750200007502000043
:1001E0007502000075020000750200007502000033
:1001F0007502000075020000750200007502000023
:100200007502000075020000750200000000000089
:100210007502000075020000750200007502000002
:1002200075020000750200007502000075020000F2
:1002300075020000750200007502000075020000E2
:1002400075020000750200007502000075020000D2
:1002500075020000750200007502000075020000C2
:1002600075020000750200007502000000F004B87D
:10027000FEE7FEE7FEE70000DFF80CD000F0A6FA8C
:10028000004800477D340000780800200138FDD187
:1002900070470000EFF3108072B67047EFF31080E4
:1002A0007047EFF3108062B6704730BF704780F33D
:1002B00011887047EFF311807047D2B201E000F867
:1002C000012B491EFBD270470022F6E710B51346FA
:1002D0000A4604461946FFF7F0FF204610BD421EAD
:1002E00012F8013F002BFBD111F8013B02F8013B52
:1002F000002BF9D170470EB5C10F80EAE0700844B9
:10030000CA07002140F233438DE80E000A460B462F
:1003100000F056F803B000BD70B5C1F30A5201F009
:1003200000450024C1F3130140F2FF3341F4801172
:100330009A4201DA002070BD40F233439A42A2F2A1
:10034000334203DC524200F01CF800E090402C43A2
:10035000F1D0404270BD30B50B460146002020224E
:10036000012409E021FA02F59D4205D303FA02F5C2
:10037000491B04FA02F52844151EA2F10102F1DC22
:1003800030BD202A04DB203A21FA02F00021704718
:1003900021FA02F3D040C2F12002914008431946ED
:1003A000704710B5141E73F1000408DA401C41F1C7
:1003B000000192185B411A4301D120F0010010BDE9
:1003C0002DE9F04D92469B4611B1B1FA81F202E05F
:1003D000B0FA80F22032904600F00AFA04460F4646
:1003E00040EA0A0041EA0B0153465A46084313D03B
:1003F000114653EA010019D0C8F140025046FFF7F8
:10040000C0FF05460E4650465946424600F0F0F9F8
:10041000084305D0012004E020463946BDE8F08DB0
:100420000020054346EAE0762C4337430A986305EB
:10043000E40AA0EB08000022FD0A44EA47540A300F
:1004400002D500200146E9E7010510196941DDE9FF
:10045000084500196941BDE8F04DA2E72DE9FE4FBE
:10046000804681EA0300C00F0C46009021F0004155
:1004700023F00045B8EB0200A94105D240462146D1
:1004800090461C460B46024623F00040104347D0DE
:10049000270DC7F30A00C3F30A510290401A0190D6
:1004A00040286BDAC3F3130040F4801B0098924697
:1004B00020B10023D2EB030A63EB0B0B01985946E2
:1004C000C0F14002504600F093F906460D465046F2
:1004D0005946019A00F09BF910EB08006141002495
:1004E00087EA115284EAE7731A4340D0009A62B354
:1004F000019A012A4FEA075215DC001B61EB020149
:100500004FF0004202EA0752CDE90042001C41F5DB
:10051000801132462B46FFF753FF03B0BDE8F08F42
:1005200040462146F9E7001B61EB0201001C41F542
:10053000801300185B412018A2F5001747EB030158
:1005400040EAD570B6196D4111E06D084FEA3606E4
:1005500045EAC0754FEA0752001B61EB0201001C1F
:1005600041F5801149084FEA3000001951413246E7
:100570002B4603B0BDE8F04FFFF713BF00980122F0
:1005800040000023D0EB020263EBE07300982146A9
:100590004FEAE074B8EB000061EB0401E9E783F097
:1005A00000435BE781F0004158E72DE9FE4F81EA07
:1005B000030404F0004421F0004100944FF0000BCC
:1005C00023F0004350EA01045ED052EA03045BD0FA
:1005D000C3F30A54C1F30A552C44A4F2F334019432
:1005E000A0FB0254C1F3130141F48011C3F31303C0
:1005F00043F4801301FB024400FB034E840A970A74
:1006000044EA815447EA8357A4FB076802958D0AA0
:1006100005FB07854FEA932C04FB0C542705029D2C
:100620004FEA065847EA1637B5EB08056EEB070C9C
:10063000870E920E47EA811742EA8312A7FB020156
:10064000B6EB0B0164EB00042B0D43EA0C335E1890
:1006500044EB1C50DA465146E7FB0201C5F3130494
:100660004FEA0B3343EA14534FEA0432019C43EA46
:100670000603A4F10C040294009CCDE900B4FFF73A
:100680009FFE03B0BDE8F08F00200146F9E72DE999
:10069000F04D81EA030404F0004B21F000451446BC
:1006A0004FF0000A23F0004150EA050220D054EA3E
:1006B00001021DD0C5F30A570246C5F31303C1F367
:1006C0001300C1F30A5640F4801543F48013A7EBDE
:1006D0000608101BD64608F2FD3873EB050002D35E
:1006E00008F1010801E092185B41B8F1000F03DA4C
:1006F00000200146BDE8F08D00204FF48011064631
:1007000084460EE0171B73EB050705D3121B63EB42
:10071000050306434CEA010C49084FEA30009218E1
:100720005B4150EA0107EDD152EA030012D082EAA0
:10073000040083EA0501084305D0101BAB4106D233
:100740000122002306E000224FF0004302E06FF098
:10075000010253101AEB06004CEB085110EB0A0093
:1007600041EB0B01BDE8F04DFFF71BBE70B521F06A
:10077000004303430CD0C1F30A550024D5EB040514
:1007800064EB0403D617AD1AB34102DB0020014627
:1007900070BD201841EB025170BD000030B5041E41
:1007A00071F1000404DB4FF00044404264EB0101AE
:1007B000141E73F1000405DB1C464FF00043524247
:1007C00063EB0403994208BF904230BD064C074DCD
:1007D00006E0E06840F0010394E807009847103411
:1007E000AC42F6D3FFF74CFD5839000078390000D1
:1007F000202A04DB203A00FA02F1002070479140E1
:10080000C2F1200320FA03F3194390407047202AD5
:1008100006DBCB17203A41FA02F043EAE07306E028
:1008200041FA02F3D040C2F1200291400843194638
:1008300070472DE9F04D00231A461B1A8A4103DB4D
:1008400000200146BDE8F08DC1F30A52C1F3130147
:1008500041F480154FF0000BD10702D100186D4113
:10086000521E0027044640F2FF11384601EB620A8F
:100870003E468046024600204FF48011FFF781FD7E
:10088000C2197141BB1846EB0100B4EB030C75EBC8
:10089000000C04D3E41A65EB000517460E46241934
:1008A00008F101006D4180463428E3DDF91946EB7B
:1008B0000600091BA84103D24FF0FF32134601E0A6
:1008C000002213461BEB070046EB0A51BDE8F04D32
:1008D000FFF767BD70B58C1810F8015B15F00703C2
:1008E00001D110F8013B2A1106D110F8012B03E0C9
:1008F00010F8016B01F8016B5B1EF9D12B0705D4D1
:100900000023521E0DD401F8013BFAE710F8013B19
:10091000CB1A921C03E013F8015B01F8015B521E35
:10092000F9D5A142D8D3002070BDF0B507461C46CA
:1009300015460E462A2002F07BFDC7F30F2002F079
:1009400089FDF8B202F086FDC5F30F2002F082FDAA
:10095000E8B202F07FFD2B2002F06AFDC6F30F2003
:1009600002F078FDF0B202F075FDC4F30F2002F042
:1009700071FDE0B202F06EFDBDE8F0402C2002F007
:1009800057BD00000248016841F4700101607047E2
:1009900088ED00E00248016841F040410160704785
:1009A00034EF00E0D0F8003412F0010F14BF0B4315
:1009B0008B43C0F8003412F0020FD0F8202414BF8B
:1009C000114322EA0101C0F820147047D0F800C595
:1009D00012F0010F14BF4CEA010C2CEA010CC0F814
:1009E00000C5D0F804C512F0020F14BF4CEA010C88
:1009F0002CEA010CC0F804C5D0F808C512F0040FA9
:100A000014BF4CEA010C2CEA010CC0F808C512F026
:100A1000080FD0F8182514BF0A438A43C0F81825D8
:100A2000D0F80C2513F0010F14BF0A438A43C0F815
:100A30000C25D0F8102513F0020F14BF0A438A4387
:100A4000C0F81025D0F8142513F0040F14BF0A4382
:100A50008A43C0F81425D0F81C2513F0080F14BFE2
:100A60000A438A43C0F81C25D0F82825002B0CBF68
:100A7000114322EA0101C0F8281570470F4AC0F35C
:100A80000741D26E01238B401A420D4A1ABF02EB76
:100A9000C1014A6852F83120C0F3072102F22C53F9
:100AA000D2F82C254FF00F0C0CFA01FC00F00F00CF
:100AB00022EA0C02884010431860704700E00F40A3
:100AC0003036000030B504460D460222FFF76AFFBB
:100AD00029462046BDE8304008230122FFF776BFB3
:100AE00010B5022816D0032818BF10BD134800F017
:100AF00001FC1348FFF7C2FF1248FFF7BFFFC021F8
:100B00001148FFF7DFFFBDE810404FF416510320F6
:100B100001F0FFB80D4800F0EDFB0D48FFF7AEFF08
:100B20000C48FFF7ABFF30210B48FFF7CBFFBDE8C8
:100B300010404FF4E131022001F0EBB80400002036
:100B400001180200011C020000600040400000206B
:100B500001100600011406000060024070B500F0AC
:100B600095FF4FF08075214E286A8A240022036881
:100B7000042130469847204601F00CF8286A0422E8
:100B80001146036830469847286A402400220368CB
:100B9000042130469847204600F0FCFF286A0422D2
:100BA0001146036830469847286A002204210368EA
:100BB00030469847C02000F0EDFF0024002000F0F0
:100BC000E9FF611CCCB2102CF8D3286A042211462C
:100BD000036830469847686C816905488847286AE9
:100BE0000121C26BBDE8704002481047005002402E
:100BF000090800F00010064010B5FFF74BFBC0B22B
:100C000010BD10B5FFF74DFBC0B210BD30B50546A5
:100C10002A2002F00DFC002002F01CFC002002F053
:100C200019FC012002F016FCDF2002F013FC2B203F
:100C300002F0FEFB002002F00DFC002002F00AFC96
:100C4000012002F007FC0F2002F004FC2C2002F02F
:100C5000EFFB2C2002F0ECFB0024284602F0FAFB0C
:100C6000641CB4F5FF3FF8D330BD00002DE9F04F10
:100C70000026A2EB00085F1A83B0354682468946FB
:100C8000B8F1000FC8BF012007DC0FBF00204FF0F4
:100C9000FF30C8F10008019000D10190002FC8BFBB
:100CA000012006DC0FBF00204FF0FF307F42009094
:100CB00000D10090B845CCBF44463C464FF0000BF5
:100CC000601C52BF029003B0BDE8F08F4B46524605
:100CD00019461046FFF729FE0D48008880B202F041
:100CE000B9FB46443D44A64202DD0198361B8244CE
:100CF000A54202DD00982D1B81440BF101001FFA73
:100D000080FB02988345E1DD03B0BDE8F08F000071
:100D100000000020F0B51C4615460E4607468BB273
:100D200092B289B280B2FFF7A1FFA3B2BAB2B1B258
:100D3000B8B2FFF79BFFA3B2AAB2A1B2B8B2FFF755
:100D400095FFA3B2AAB2B1B2A8B2BDE8F040FFF7D6
:100D50008DBF00002DE9F04F814631481C468B467F
:100D60000768B9F5E87F28BFBDE8F08FBBF1FF0F3A
:100D700088BFBDE8F08FA2F1200000F0FF080BF162
:100D80000F0309F107024846FFF7CFFDDFF894A0F3
:100D9000002C4FF0000608BFDFF884901CD106EB52
:100DA000081000251AF8004014F0010F12BFC9F80E
:100DB0000070D9F80400C9F80000B9F8000080B24A
:100DC00002F048FB681C6408C5B2082DECD3701C07
:100DD000C6B2102EE3D31EE0124806EB0811002421
:100DE000455C0BEB060A15F0010F0BD009EB040074
:100DF000514653460246FFF798FD0948008880B2E5
:100E000002F028FB601C6D08C4B2082CEBD3701CE8
:100E1000C6B2102EE0D302480760BDE8F08F000094
:100E2000000000200800002070B505461078144628
:100E30000E46002808BF70BD2278A12AFCD80023E6
:100E400031462846FFF786FF14F8010F08350028C1
:100E5000F2D170BD70B54FF08074606C8169084844
:100E60008847206A074D0421C26B28469047216AB3
:100E70002846CA6B08219047BDE8704000F0B8B81A
:100E800002000020005000402DE9F0414FF0807436
:100E90001F4D606C816928468847206A1D4E0821D5
:100EA000826B3046904741F28831481E0104090C9C
:100EB000FBD1206A0422114603683046984741F26C
:100EC0008831481E0104090CFBD1206A08213746ED
:100ED000C26A30469047002814BF01260026206AC7
:100EE00000220421036838469847606C81692846CF
:100EF0008847206A0821C26B3846904741F2883003
:100F0000401E0004000CFBD13046BDE8F08100001B
:100F100002000020005000402DE9F0411A4F054624
:100F200000244FF0807615F0800F306A036804D0FB
:100F3000082211463846984703E000220821384627
:100F400098476806050E306A042211460368384641
:100F5000984741F28831481E0104090CFBD1306AE0
:100F60000022042103683846984741F28831481E20
:100F70000104090CFBD1601CC4B2082CD3D3BDE81A
:100F8000F041FFF781BF00000050004070B54FF006
:100F90008074164D206A0822114603682846984737
:100FA000206A0422114603682846984741F2883196
:100FB000491E0904090CFBD1206A0022082103689C
:100FC0002846984741F28831491E0904090CFBD193
:100FD000206A0022042103682846984741F288309D
:100FE000401E0004000CFBD170BD0000005000400A
:100FF00070B54FF08074164D206A002204210368FA
:1010000028469847206A0022082103682846984706
:1010100041F28831491E0904090CFBD1206A0422DF
:10102000114603682846984741F28831491E090451
:10103000090CFBD1206A082211460368284698470C
:1010400041F28830401E0004000CFBD170BD00004E
:101050000050004070B540060D46040EFFF796FFA5
:101060002046FFF759FF2846FFF756FFBDE87040BE
:10107000FFF7BEBF2DE9F04F83B000254FF080761B
:1010800000950195306A3E4F2A4603680421384690
:101090009847422000F07EFD012200200021491CDB
:1010A000B1F57A6FFBDB401C9042F7DB0024DFF8E0
:1010B000D48000F01DFD08F8040030308DF80400E5
:1010C00001A800F05BFE601CC4B28DF80450042C33
:1010D000EFD3306A0422114603683846984700204F
:1010E0000123032404264FF0020C05274FF00609C4
:1010F0004FF0070A4FF0080B6A4618F8001051B37A
:10110000102908BF0CEBC00138D014DC012908BF3E
:1011100003EBC00132D0022908BF04EBC0012DD07F
:10112000042908BF07EBC00128D0082908BF0AEB33
:10113000C00123D00EE0202908BF06EBC0011DD05E
:10114000402908BF09EBC00118D0802908BF0BEB6C
:10115000C00113D01554401CC0B20428CDD39DF853
:1011600000009DF801109DF8032008449DF802102E
:1011700003B011440844C0B2BDE8F08F1154EAE74F
:1011800000500240050600202DE9F041DFF85081B3
:101190000446D8F8000010F0E04F06D0D8F8000060
:1011A00050490840B0F1805F04D114F0004F18BFDF
:1011B000BDE8F081D8F86010D8F8700021F4800103
:1011C00041F4006540F40066C8F86050C8F87060EB
:1011D00015F0020F02D014F0020F04D025EA04002B
:1011E00010F0010F16D064F003000540C8F86050FD
:1011F00016F0004F07D006F07000302859D070204C
:10120000B04356D002E03020A84352D04FF4002023
:10121000FFF73CF825F4FE6004F4FE6141EA0007A4
:10122000314926F0700020F000402140084304F0CE
:10123000080140EAC105C8F86070C8F87050102075
:10124000FFF724F827F4405004F44051014325F4FB
:10125000005004F4005210434022C8F8582010F007
:10126000004F08BFC8F86010C8F8700018BFC8F871
:10127000601021F003011D4A21F0F8612240114362
:1012800020F0FC5004F0FC52104314F0804F08BFD3
:1012900020F0804206D0164A20F48000224041F41B
:1012A0008001024314F4006F08BF4FF4004003D0E4
:1012B0000DE04FF48050ABE7D8F8503013F0400FFA
:1012C00001D1401EF8D121F4006122F40062C8F877
:1012D0006010C8F87020BDE8F0411020FEF7D6BFBE
:1012E00000E00F400000FF70300000800300C007E6
:1012F000000040404FF0704181430CD00F49020F75
:1013000051F822100A6883B2C0F3044003FA00F0D7
:10131000104308607047C0F307230949C0B219445D
:1013200001F07043C1F3130143EA411141EA800027
:1013300040F000700122026070470000C4360000D7
:1013400000E60F402DE9F04F00262DED028B9DB0F9
:1013500035463446B24664216846FEF7B5FFF7A02D
:10136000B04600681990F6A000681A90FFF7F6FBE7
:10137000DFF8D0B3B146002778061BF80910000E3D
:1013800000F08EFE4FF47A710020401C1C28FCD324
:10139000491EF9D1781CC7B2082FEDD309F101001D
:1013A00000F0FF09B9F1100FE5D364210020401CC3
:1013B0001C28FCD3491EF9D100277806000E3F21D6
:1013C00000F06EFE781CC7B2082FF6D30020401C38
:1013D00000F0FF0900273946484600F061FE4FF44F
:1013E0007A710020401C1C28FCD3491EF9D1781CBE
:1013F000C7B2032FEFD309F10100C0B21028E6D322
:1014000000201C9007461B90FFF734FECE4908448D
:1014100010F8019CB9F11F0F80F0128309F00F0042
:101420001BF80010022000F03BFE0BEB19100178B6
:10143000002000F035FEC5480178894518BF80F8C6
:101440000090B9F1190F80F0FB82DFE809F0FE0D82
:101450003A6794C1FDFCFBFAF9F8F7F6F5F4F3F2FC
:10146000F1F0EFEEEDECEB00BEB104EB84000121F6
:1014700001EB40040020FFF7C9FB0122B4A1B548ED
:1014800000F03EFEB3496846FEF729FF78216A4620
:101490000846FFF7C9FC00F0D3BA05EB850001212F
:1014A00001EB40050020FFF7B1FB2A46A8A1AA489E
:1014B00000F026FE7821A84A0846FFF7B5FC00F0A8
:1014C000BFBABEB104EB8400022101EB400400204E
:1014D000FFF79CFB02229EA19E4800F011FE9D4951
:1014E0006846FEF7FCFE78216A460846FFF79CFC3A
:1014F00000F0A6BA05EB8500022101EB40050020B3
:10150000FFF784FB2A4692A1934800F0F9FD782169
:10151000914A0846FFF788FC00F092BABEB104EB8E
:101520008401032000EB41040020FFF76FFB03223E
:1015300087A1884800F0E4FD86496846FEF7CFFEA3
:1015400078216A460846FFF76FFC00F079BA05EB90
:101550008500032101EB40050020FFF757FB2A46D9
:101560007BA17D4800F0CCFD78217B4A0846FFF73F
:101570005BFC00F065BABEB104EB8400042101EB12
:1015800040040020FFF742FB042271A1714800F0E3
:10159000B7FD70496846FEF7A2FE78216A46084604
:1015A000FFF742FC00F04CBA05EB8500042101EB8B
:1015B00040050020FFF72AFB2A4665A1664800F097
:1015C0009FFD7821644A0846FFF72EFC00F038BAE8
:1015D000BEB104EB8400052101EB40040020FFF7BD
:1015E00015FB05225AA15B4800F08AFD594968465F
:1015F000FEF775FE78216A460846FFF715FC00F0F5
:101600001FBA05EB8500052101EB40050020FFF71F
:10161000FDFA2A464EA1504800F072FD78214E4A4C
:10162000084613E002E2F6E1EAE1DEE1D2E1C6E1DA
:10163000B5E1A4E17EE175E119E109E1F9E0E9E054
:10164000D0E0A0E060E032E004E0F9E1FFF7ECFB7D
:1016500000F0F6B9BEB104EB8400062101EB4004B2
:101660000020FFF7D3FA062239A13A4800F048FDDE
:1016700038496846FEF733FE78216A460846FFF788
:10168000D3FB00F0DDB905EB8500062101EB400539
:101690000020FFF7BBFA2A462DA12F4800F030FDAD
:1016A00078212D4A0846FFF7BFFB00F0C9B9BEB14B
:1016B00004EB8400072101EB40040020FFF7A6FAA9
:1016C000072223A1234800F01BFD22496846FEF7AC
:1016D00006FE78216A460846FFF7A6FB00F0B0B97F
:1016E00005EB8500072101EB40050020FFF78EFA8E
:1016F0002A4617A1184800F003FD7821164A08462B
:10170000FFF792FB00F09CB9BEB104EB8400082106
:1017100001EB40040020FFF779FA08220CA10D48E4
:1017200000F0EEFC0B496846FEF7D9FD78216A46C9
:101730000846FFF779FB00F083B90FE0770000005F
:101740003D000000003600001036000004060020B6
:1017500025640000600600205606002005EB850089
:10176000082101EB40050020FFF750FA2A46AFF2AE
:101770002001BA4800F0C4FC7821B84A0846FFF7B7
:1017800053FB00F05DB9C6B104EB8400092101EB05
:1017900040040020FFF73AFA0922AFF24C01B048AA
:1017A00000F0AEFCAE496846FEF799FD78216A4626
:1017B0000846FFF739FB00F043B905EB8500092126
:1017C00001EB40050020FFF721FA2A46AFF2800125
:1017D000A24800F095FC7821A04A0846FFF724FBB8
:1017E00000F02EB966B92B208DF864009B4968463D
:1017F000FEF775FD19A96846FEF771FD012688E020
:101800000020FFF703FA782196A20846FFF70CFBA9
:1018100000F016B9002EF3D12D208DF864008F4909
:101820006846FEF75CFD19A96846FEF758FD0126DB
:101830006FE0002EE4D12A208DF8640087496846C5
:10184000FEF74DFD19A96846FEF749FD012660E047
:10185000002ED5D12F208DF8640080496846FEF710
:101860003EFD19A96846FEF73AFD012651E0012E1A
:101870004FD11AA96846FEF732FD9DF864002D2865
:1018800008BFA5EB04082DD010DC252804BF95FB6C
:10189000F4F004FB105825D02A2808BF05FB04F8F3
:1018A00020D02B2808BF05EB04081BE02F2808BF19
:1018B00095FBF4F816D05E2814D12046FEF71BFDE8
:1018C00041EC180B2846FEF716FD41EC100BB0EE6C
:1018D000481AF0EE681A00F03FFC51EC100BFEF7CE
:1018E0001BFD8046C2465246AFF29C11614800F093
:1018F00007FC60496846FEF7F2FC0020FFF786F916
:1019000078216A460846FFF78FFA002635463446A6
:1019100096E00020FFF77AF978216A460846FFF73B
:1019200083FA8DE000263546344664216846FEF78A
:10193000CBFCEEE79EB154460020FFF767F9524614
:10194000AFF2F411464800F0DBFB45496846FEF76C
:10195000C6FC78216A460846FFF766FA70E05546ED
:101960000020FFF753F92A46AFF21C213B4800F054
:10197000C7FB7821394A0846FFF756FA60E0002E87
:101980007FF43EAF25208DF8640034496846FEF7A9
:10199000A6FC19A96846FEF7A2FC0126B9E7002EAD
:1019A0007FF42EAF5E208DF864002C496846FEF768
:1019B00096FC19A96846FEF792FC0126A9E70020CB
:1019C000FFF724F978212CA20846FFF72DFA47F0FB
:1019D000040735E00020FFF719F9782126A2084610
:1019E000FFF722FA47F008072AE00020FFF70EF978
:1019F000782121A20846FFF717FA47F010071FE0E9
:101A00000020FFF703F978211BA20846FFF70CFA24
:101A100047F0200714E00020FFF7F8F8782116A21D
:101A20000846FFF701FA47F0400709E00020FFF7FA
:101A3000EDF8782110A20846FFF7F6F947F0800785
:101A40001C98FF2802BF1B98FF28FF2F7FF4DCACF7
:101A50001DB0BDEC028BBDE8F08F000056060020E3
:101A6000600600204572726F7220696E7075742175
:101A7000210000006A0600204E6F742061766169C3
:101A80006C61626C65206B657921210070B54FF047
:101A90008074606C816912488847206A114D042166
:101AA000C26B28469047216A042228460B681146DB
:101AB0009847606C81690C488847206A0B4D042167
:101AC000C26B28469047206A0121C26B2846904786
:101AD000206A0122114603682846BDE87040184775
:101AE0002000002000500240090800F000100640CD
:101AF0002DE9F0414FF08076DFF89080706C002483
:101B0000816940468847306A214F0121826B3846FF
:101B1000904701210020401C1C28FCD3491EF9D10C
:101B20000025306A6408002203680421384698477B
:101B30000A200021491C1C29FCD3401EF9D1306A1F
:101B40000121C26A38469047002818BF44F080043B
:101B5000306A042211460368384698470120002164
:101B6000491C1C29FCD3401EF9D1681CC5B2082DA4
:101B7000D7D3706C816940468847306A0121C26BB7
:101B8000384690472046BDE8F0810000090800F083
:101B9000001006402DE9F0414FF080760546706C4C
:101BA000816918488847306A174F0121C26B38464F
:101BB00090470024306A0022042103683846984781
:101BC000306A15F0010F036804D00122114638462F
:101BD000984703E00022012138469847306A6D0893
:101BE0000422036811463846984701200021491C09
:101BF0001C29FCD3401EF9D1601CC4B2082CD9D3D7
:101C0000BDE8F081090800F000100640F0B58DB085
:101C10000024FEF7F1FF2F4F0121384600F074F841
:101C200005460146384600F06DF815F0100F1CBF50
:101C3000294D2A4E49D0384600F05EF82855707874
:101C4000401C7070601CC4B2302CF4D3224800F0E9
:101C500095F870780024302891BF347001203070DE
:101C6000747070783028FDD3002009A92A185278A2
:101C70000A54401CC0B20928F8D319A2B42132205A
:101C8000FFF7D2F809AAB4217220FFF7CDF800209F
:101C900069462A18127B0A54401CC0B22328F8D384
:101CA00012A2C8213220FFF7BFF86A46C8218A2055
:101CB000FFF7BAF871780020002904D92C54401C91
:101CC000C0B28142FAD874703470FEF79AFF0DB03A
:101CD000F0BD000000E0004024060020F8050020D0
:101CE000524649445F49443A000000005246494484
:101CF0005F56616C75653A00816911F0100FFBD178
:101D00000068704741647047002914BF006CC06BC5
:101D1000704700F001B800002DE9F0414FF08075E8
:101D20000F46696CDFF848800446096958F82400BA
:101D30008847002808BFBDE8F0810E480E4E50F8D5
:101D400024007060696C58F8240089698847686CC1
:101D5000006E8047696960233A46D1F814C0014695
:101D60007068E0476869C1697068BDE8F04108477C
:101D7000E0350000C0350000FC0500200FB42DE95F
:101D8000F04F87B011AE10980078002802BF07B05E
:101D9000BDE8F00F5DF814FB0DF1080BDFF8ECA2C5
:101DA0004FF08079109F0025785D25281CBF002802
:101DB0006D1CF9D10024002D13D9385D0A2806D1F5
:101DC000D9F814000D210268DAF804009047D9F818
:101DD0001400395D0268DAF804009047641CAC42D4
:101DE000EBD31098284410900178252940F04381C6
:101DF000401C00244FF0200C1090109911F8010B9A
:101E00001091382830D014DC33282DD008DC252858
:101E100000F0078130281CBF3128322824D01AE076
:101E2000342818BF35281FD0362818BF37281BD0B4
:101E300011E070287ED008DC392815D0582879D0D8
:101E400063281ED0642837D005E0732840D0752859
:101E500071D078286ED005278DA50024285D0A282A
:101E600040F0FE8000F0F5B811F8010C302804BFF6
:101E7000002C4FF0300C04EB840149003039441839
:101E8000BBE756F8040B01276D4600240090285D3F
:101E90000A2806D1D9F814000D210268DAF80400E6
:101EA0009047D9F81400295D0268DAF804009047D9
:101EB000641CBC42EBD3DEE056F8040B0025009016
:101EC0000028BDBF40420123009000230A2151E0B9
:101ED00056F8048B002718F80700002818BF7F1C4D
:101EE000F9D10025002F15D918F805000A2806D1C8
:101EF000D9F814000D210268DAF804009047D9F8E7
:101F0000140018F805100268DAF8040090476D1CF8
:101F1000BD42E9D3A7427CD2E01BB0F1010878D3DF
:101F200001275DA50024285D0A2809D1D9F81400ED
:101F30000D2101E018E011E00268DAF80400904792
:101F4000D9F81400295D0268DAF804009047641C8F
:101F5000A742E8D8B8F10108E2D28CE056F8040BA9
:101F600000250A21009004E056F8040B00251021FA
:101F700000900023009F012000FB01F2BA429CBFA9
:101F8000B2FBF1F8804504BF1046641EF4D043B1A3
:101F9000641EBCF1300F04D12D220BF80520002364
:101FA0006D1CA21E0E2A07D2621E05D00BF805C0BA
:101FB000521E05F10105F9D11BB12D220BF80520A8
:101FC0006D1C002818BF354B10D0B7FBF0F2B2FBE8
:101FD000F1FC01FB1C22D3F800C0B0FBF1F01CF8AF
:101FE00002200BF805206D1C0028EED1002402AF62
:101FF000002D40D9385D0A2806D1D9F814000D21EA
:102000000268DAF804009047D9F81400395D0268D4
:1020100000E030E0DAF804009047641CAC42E9D3F9
:1020200029E04D1E01270024285D0A2806D1D9F891
:1020300014000D210268DAF804009047D9F8140062
:10204000295D0268DAF804009047641CBC42EBD3B7
:1020500011E0D9F814000D210268DAF80400904765
:10206000D9F81400295D0268DAF804009047641C6E
:10207000BC42FFF4F3AE1098007800287FF492AED3
:1020800007B0BDE8F00F5DF814FB0000FC05002070
:102090004552524F5200000020000000BC350000A5
:1020A0002DE9F0414FF080740546206A134E0F462B
:1020B000002203684FF04408042130469847404608
:1020C000FFF768FD206A04221146036830469847EE
:1020D000206A0022042103683046984745F0C0007A
:1020E000FFF758FD3846FFF755FD206A04221146D8
:1020F00003683046BDE8F041184700000050024038
:102100000FB4084B10B504A902AA039800F026FFEB
:10211000044602A9002000F0CBFF204610BC5DF869
:1021200014FB0000B130000003B401984100009896
:1021300050EAC12018BF04204A0D18BF40F001002A
:1021400040F2FF72B2EB515F08BF40F0020001287D
:1021500008BF052002B070472DE9F04D2DED040BAE
:102160002DED0C8B96B0DDE92350259CDDF888A081
:1021700025F0004624F00048BAF1000F14BF0121F9
:10218000002101EB4502FE4953184A1093422AD31D
:10219000002814BF0123002303EB44030B44F94937
:1021A0008B4220D358EA00019FEDF78B6FD0DFF808
:1021B000E0B35D4503D1BAF1000F05D187E0BAF174
:1021C000000F08BF002100D0012101EB450111F5EE
:1021D000001F08D8002814BF0121002101EB440191
:1021E00011F5001F0BD99DED241B9DED220B16B0A0
:1021F000BDEC0C8B04B0BDE8F04D00F05DBE0027D7
:10220000002DBCBFE349884521DAE3498845A8BFD2
:1022100002271CDAC3451ADCE04901EB28511429D6
:1022200008DDC1F1340220FA02F101FA02F2824221
:102230000DD108E058B9C1F1140228FA02F101FAEF
:1022400002F2424503D101F00101C1F1020756EA51
:102250000A011DD1002C1BDA002D18BF022F01D05E
:10226000012F0AD0022000F073FE16B0BDEC0C8BDB
:1022700004B0BDE8F04D00F007BE022000F068FE9B
:1022800000F002FE51EC100B81F0004183E01EE0F3
:102290009FEDC39B9FEDC4AB002872D1BD48804524
:1022A0002DD105F1804010F5801008BFBAF1000F64
:1022B0000DD0B34515DC002CA1BF9DED240B16B04D
:1022C000BDEC0C8B04B0A8BFBDE8F08D12E0B0EE01
:1022D000480AF0EE680A16B0BDEC0C8B04B0BDE8FD
:1022E000F08D002C06DA9DED240B51EC100B81F0E3
:1022F000004150E0AE48784490ED000BEBE7D84544
:102300004FD1002C4ADA2EB186423BD1BAF1000FF0
:1023100044D126E0BAF1000F13D0022000F018FEDD
:1023200000F0E6FD8DED020B9DED220B8DED000B17
:1023300010EE900A039961F31E0003909DED020BCD
:10234000C9E78DED029B9DED220B19EE901A10EE60
:10235000900A8DED000B61F31E0003909DED020BC2
:10236000B9E78DED02AB9DED220B1AEE901A10EE3F
:10237000900A8DED000B61F31E0003909DED020BA2
:10238000A9E729E00ADA9DED220B51EC180B53EC7A
:10239000102BFEF77CF941EC100B9CE79DED220B16
:1023A00099E7864218DAB4F1804F0DD0A4F10050BD
:1023B000B0F1FF5010D1002D0EDB9DED220B51EC42
:1023C000100B01F0C3F8E6E79DED220B53EC102B48
:1023D00051EC100B00F0AEBC9DED220B51EC100B3C
:1023E00000F06BFEBAF1000FCDE90C0134D19FED86
:1023F000720BDEB1A6F1E040B0F17F602CD1002D70
:1024000001DD002C0DDA002D01DD002C1FDB002D7D
:1024100016DA002C14DB012F08BF9FED690B3FF487
:102420005AAFB0EE490AF0EE690A54E7022F18BF1E
:10243000002D0CD0012F0AD1002DFFF64CAF06E085
:10244000002DB8BF002C07DA012F3FF444AFB0EEE7
:102450004A0AF0EE6A0A3EE7012000EBE57A5AEA02
:1024600007000CD05848002580457CDD5749584866
:10247000884514DDB0420DDB002C19DB2BE0012078
:1024800000F066FD16B0BDEC0C8B04B0BDE8F04D5D
:1024900000F01EBDB34502DC002C09DC1BE08642C7
:1024A00002DA002C17DA03E05E4527DD002C12DD8E
:1024B000022000F04DFD00F01BFD10EE901A19EE09
:1024C000900A8DED020B8DED009B61F31E000390D1
:1024D0009DED020BFFE6022000F03AFD00F018FD32
:1024E00010EE901A18EE900A8DED020B8DED008B18
:1024F00061F31E0003909DED020BECE69DED220BB7
:1025000053EC182B51EC100BFEF749F89FED320BF2
:10251000CDE90A0153EC102B9DED0A0B51EC100B89
:10252000FEF743F89FED2E1B53EC112BFEF73AF804
:102530009DED0A1B53EC112BFEF737F89FED2A1B7C
:1025400053EC112BFEF72EF89DED0A0B41EC190B05
:1025500053EC102B51EC100BFEF727F853EC192B12
:10256000FEF723F800E07EE09FED210B41EC1A0B13
:1025700053EC102B9DED0A0B51EC100B3CE00000CE
:10258000FFFF1F00FFFF0F00000000000000F03FF2
:102590000000F03F0000F07F0000404301FCFFFF1F
:1025A000000000000000F07F0000000000000000BC
:1025B000FE15000000000000000000000000008088
:1025C000000000000000F0FF0000E0410000F043C8
:1025D000FFFFEF3F00000000000000000000D03FC0
:1025E000555555555555D53F000000000000E03FBA
:1025F000000000604715F73FFDF7D7FF41EC190BCE
:102600009FEDFD0B51EC1A0B53EC102BFDF7CDFF9A
:1026100041EC1A0B9FEDFA0B53EC102B9DED0A0BBE
:1026200051EC100BFDF7C1FF53EC1A2BFDF7B7FF70
:1026300041EC1A0B51EC190B53EC1A2BFDF70EFF62
:102640000690CDE906519DED060B53EC192B51EC8C
:10265000100BFDF7A4FF53EC1A2BFDF7A3FF41EC81
:10266000100B00F09FB90020B6F5801F0EDA9FED29
:10267000E60B53EC102B9DED0C0B51EC100BFDF702
:1026800094FFCDE90C016FF034000E4600EB2650AC
:10269000A0F2FF38C6F31300DD4940F07F6646F034
:1026A00040568842D8BF002409DDDA498142C8BFBC
:1026B000012404DC0024A6F5801608F10108D648A0
:1026C000784400EBC4000D9690ED00BB9DED0C0B23
:1026D00053EC1B2B51EC100BFDF761FF9DED0C0B28
:1026E00041EC1A0B53EC1B2B51EC100BFDF7B6FE13
:1026F00041EC100B51EC180B53EC102BFDF7C7FFFE
:1027000041EC1C0B51EC1A0B53EC1C2BFDF74DFF4D
:1027100041EC190BC1488DED109B7844109590ED5C
:10272000000B4FF0005040EA660000EB84408DED56
:102730000A0B00F500200B909DED0A0B53EC1B2BB0
:1027400051EC100BFDF72BFF9DED0C1B53EC112BE7
:10275000FDF728FF41EC100B53EC102B9DED100BF7
:1027600051EC100BFDF721FF9DED0A0B41EC1B0B0B
:1027700053EC102B9DED100B51EC100BFDF715FFDA
:1027800053EC1A2BFDF70EFF53EC1B2BFDF707FF45
:1027900053EC1C2BFDF709FF41EC1B0B53EC192BE1
:1027A00051EC190BFDF701FF41EC1A0B9C48062177
:1027B000B0EE4A0AF0EE6A0A784400F0E9FAB0EEA8
:1027C00040CAF0EE60CA53EC1A2B51EC1A0BFDF71D
:1027D000ECFE53EC1C2BFDF7E8FE9DED100B41ECDD
:1027E0001A0B53EC192B51EC100BFDF737FE53EC81
:1027F0001B2BFDF7DAFE53EC1A2BFDF72FFE9DED98
:10280000100B41EC1A0B53EC102B51EC100BFDF795
:10281000CCFE41EC1C0B9FED84DB53EC1D2BFDF734
:102820001DFE53EC1A2BFDF719FE0A90CDE90A5153
:102830009DED0A0B53EC1D2B51EC100BFDF7AFFE79
:1028400053EC1C2BFDF7ABFE53EC1A2BFDF7AAFE45
:102850009DED0A0B41EC1C0B53EC102B9DED100B66
:1028600051EC100BFDF7A1FE41EC1A0B53EC192BA8
:1028700051EC1C0BFDF799FE9DED0A0B41EC190B79
:1028800053EC102B51EC1B0BFDF78FFE53EC192B67
:10289000FDF7E4FD41EC190B51EC1A0B53EC192B2D
:1028A000FDF7DCFD1090CDE910519DED100B53ECC0
:1028B0001A2B51EC100BFDF772FE53EC192BFDF7A0
:1028C00071FE41EC190B9FED5A0B53EC102B9DED53
:1028D000100B51EC100BFDF768FE41EC1A0B9FED4D
:1028E000560B51EC190B53EC102BFDF75EFE41EC2F
:1028F000190B9FED530B53EC102B9DED100B51EC6E
:10290000100BFDF752FE53EC192BFDF7A7FD41EC20
:10291000100B4D48784400EBC40090ED001B51ECC7
:10292000100B53EC112BFDF799FD41EC190B4046B0
:10293000FDF7E1FCCDE90A0153EC192B51EC1A0B20
:10294000FDF78CFD41EC100B4048784400EBC400CF
:1029500090ED00BB51EC100B53EC1B2BFDF77EFDF3
:102960009DED0A1B53EC112BFDF778FD0690CDE988
:1029700006519DED0A0B53EC102B9DED060B51EC0F
:10298000100BFDF70CFE53EC1B2BFDF708FE53EC70
:102990001A2BFDF704FE53EC192BFDF703FE41EC57
:1029A000100B00BF781EB0EE48AAF0EE68AA5AEAF3
:1029B000000008BF9FED268B9DED241B53EC102BD0
:1029C0008DED001B00959DED240B51EC100BFDF7D8
:1029D000ECFD9DED000B41EC190B53EC102B9DED24
:1029E000240B51EC100BFDF7DAFD9DED061B53ECAB
:1029F000112BFDF7DAFD2FE0FE822B654715F73F1F
:102A000044DF5DF80BAE543E000000000000404380
:102A10008E9803007AB60B00AC110000DA110000AA
:102A2000E41000000000000000000000000008406A
:102A3000000000E009C7EE3FFD033ADC09C7EE3FA6
:102A4000F5015B14E02F3EBE780F0000320F00004E
:102A5000000000000000F0BF53EC192BFDF7FEFC56
:102A60009DED060B41EC190B53EC102B9DED000B6B
:102A700051EC100BFDF799FDCDE910019DED100B08
:102A800051EC190B53EC102BFDF7E8FCCDE90201DA
:102A90000C46AB498C422FDB611A084318D19DEDDF
:102AA000100B53EC102B9DED020B51EC100BFDF7AE
:102AB00076FD41EC1B0B9FEDA40B51EC190B53EC75
:102AC000102BFDF7CBFC53EC1B2BFDF767FE2DD233
:102AD000022000F03DFA00F00BFA10EE901A18EE0A
:102AE000900A8DED020B8DED008B61F31E000390BB
:102AF0009DED020BFFF7EFBB954A24F00041914298
:102B000014D39449214408437FF4E5AC9DED100BA8
:102B100053EC102B9DED020B51EC100BFDF73FFD1C
:102B200053EC192BFDF73AFE7FF6D5AC24F00040AC
:102B300089498A4A002601EB205182422BDA481C3F
:102B40004FF4801121FA00F02044854AC0F30A5165
:102B50007A44A1F2FF3192ED000B824A8DED0A0B0F
:102B6000CA4020EA0202C0F3130040F48010C1F111
:102B7000140120FA01F60B92002CB8BF76429DEDAD
:102B80000A0B53EC102B9DED100B51EC100BFDF7C5
:102B900006FDCDE910019DED100B51EC190B53EC26
:102BA000102BFDF75BFC9FED700B0A90CDE90A51ED
:102BB00053EC102B9DED0A0B51EC100BFDF7F5FCBF
:102BC00041EC1B0B9FED6A0B53EC102B9DED0A0B98
:102BD00051EC100BFDF7E9FC9DED100B41EC1C0BCB
:102BE00053EC102B9DED0A0B51EC100BFDF7D7FCAD
:102BF00053EC192BFDF7D6FC9FED5F1B53EC112B0B
:102C0000FDF7D3FC53EC1C2BFDF728FC41EC190B12
:102C100051EC1B0B53EC192BFDF720FCCDE9020105
:102C20009DED020B53EC1B2B51EC100BFDF7B7FC89
:102C300053EC192BFDF7B6FC9DED020B41EC190B83
:102C400053EC102B51EC100BFDF7AFFCCDE90A0152
:102C50004B489DED0A0B0521784400F099F89DED55
:102C60000A1B51EC100B53EC112BFDF79EFC9DED54
:102C7000021B53EC112BFDF795FCCDE906019DEDF0
:102C8000020B53EC192B51EC100BFDF78EFC53EC9F
:102C9000192BFDF7E3FB9FED3C0B41EC190B53ECBB
:102CA000102B9DED060B51EC100BFDF778FC9DED04
:102CB000060B41EC1B0B53EC102B9DED020B51EC62
:102CC000100BFDF772FC53EC1B2BFDF7E0FC53ECF3
:102CD000192BFDF764FC9DED021B53EC112BFDF746
:102CE0005EFC53EC1A2BFDF75DFCCDE9020101EB14
:102CF000065001150029C8BF039015DC9DED020B9D
:102D0000324651EC100BFDF731FDFFF70DFA0428A8
:102D100008BF00F0FDF832469DED020B51EC100BA0
:102D2000FDF724FDCDE902019DED020B51EC180BDE
:102D300053EC102BFDF739FCFFF72DBB0000000012
:102D40000000904000000000FE822B654715973C74
:102D500000CC904000346F3F01FCFFFF0000E03FDB
:102D6000A40D0000FFFF0F0000000000432EE63F0F
:102D7000396CA80C615C20BEEF39FAFE422EE63FAA
:102D8000740C000000000000000000000000004083
:102D900070B504462DED028B4D1E00EBC500B0EE64
:102DA000408AF0EE608A90ED000B35F0060017D0F7
:102DB00053EC182B51EC100BFDF7F7FB41EC100B0B
:102DC0006D1E04EBC50090ED001B51EC100B53EC95
:102DD000112BFDF743FB41EC100B35F00600E7D15A
:102DE000022D36D0042D1CD0062D1CBFBDEC028B4D
:102DF00070BD53EC182B51EC100BFDF7D6FB94ED86
:102E00000A1B53EC112BFDF729FB53EC182BFDF794
:102E1000CCFB94ED081B53EC112BFDF71FFB41EC91
:102E2000100B53EC182B51EC100BFDF7BEFB94ED7F
:102E3000061B53EC112BFDF711FB53EC182BFDF780
:102E4000B4FB94ED040B53EC102BFDF707FB41ECA6
:102E5000100B53EC182B51EC100BFDF7A6FB94ED67
:102E6000021B53EC112BFDF7F9FA53EC182BFDF76D
:102E70009CFB94ED001B53EC112BFDF7EFFABDEC1E
:102E8000028B41EC100B70BD9FED070B10B553EC9E
:102E9000102B9FED070B51EC100BFDF7F8FB41ECED
:102EA000100B10BD0000000000000000000000003A
:102EB000000000000000F03F10B553EC112B51EC66
:102EC000100BFDF7CBFA41EC100B10BD0000000019
:102ED0009FED050B10B553EC102B51EC100BFDF7CB
:102EE000D6FB41EC100B10BD0000000000000000FC
:102EF0009FED050B10B553EC102B51EC100BFDF7AB
:102F000054FB41EC100B10BD0000000000000070ED
:102F10009FED050B10B553EC102B51EC100BFDF78A
:102F200044FB41EC100B10BD00000000000000103D
:102F300002E008C8121F08C1002AFAD17047704782
:102F4000002001E001C1121F002AFBD170470000E0
:102F500001490860704700000C0600202DE9FF4F72
:102F600089B09B460446002506E025280BD05A462A
:102F70000B999047641C6D1C20780028F5D10DB08A
:102F80002846BDE8F08F0027B8460122474900E0F7
:102F9000074314F8013F203B02FA03F00842F7D13F
:102FA00020782E2819D114F8010F47F004072A2899
:102FB0000ED06FF02F022078A0F1300109290CD833
:102FC00008EB880102EB410100EB0108641CF2E709
:102FD0000A98641C50F8048B0A9020780028CED000
:102FE000642808D0692806D075281ED05A460B9947
:102FF00090476D1C58E00A994FF00A0901C90A91DF
:10300000002802DA40422D2102E0390504D52B21A7
:103010008DF82010012103E0F90704D02021F7E703
:103020008A4608AE0DE00021FAE70A994FF00A0936
:1030300001C90A91F7E74946FDF78DF9303106F8E5
:10304000011D0028F7D1ADEB060000F1200978073B
:1030500001D44FF00108C84502DDA8EB090000E0EB
:1030600000208046002706E008A85A46C05D0B995C
:1030700090476D1C7F1C5745F6DB04E030205A4614
:103080000B9990476D1CB8F10001A8F10108F5DC1F
:1030900005E016F8010B5A460B9990476D1CB9F1E3
:1030A0000001A9F10109F4DC641C65E709280100AD
:1030B0000A68531C0B601070704782B0CDE90001A4
:1030C00021F0004001909DED000B02B051EC100B7F
:1030D000704700002DE9F05F4FF08074606C006E67
:1030E000804740F6B831B0FBF1F5606C8169C248A9
:1030F0008847606C8169C1488847606C8169C048B5
:103100008847606C8169BF488847606C8169BE48A8
:103110008847606C8169BD488847606C8169BC489C
:103120008847206AFF21C26B4FF040209047206AF9
:10313000DFF8E092FF21C26B48469047206ADFF833
:10314000D8A20421C26B50469047206A0521C26B69
:10315000B2489047206A0A21C26BB0489047206A63
:10316000DFF8BCB24021C26B58469047206A00226B
:103170000421036850469847AB4EAA4F376006F1CA
:1031800004088020C8F80000206A8021C26B4846ED
:10319000904737600020C8F800003060206A0422A1
:1031A0001146036850469847A04F012041F6431846
:1031B0003870C7F80C80206A0022082103689748FD
:1031C0009847206A40221146036858469847616C28
:1031D00005EB85008000D1F8881006468847206AF4
:1031E00000224021036858469847616C3046D1F868
:1031F00088108847206A402211460368584698473D
:10320000206A08221146036884489847206A0122F0
:103210001146036881489847206A022211460368D4
:103220007E489847606C05EB8506D0F888103046DC
:103230008847206A00220821036878489847F86880
:1032400040450BD14FF4F07078604FF48870B8604F
:103250002C2038742A2078742B20B8742B2000F08E
:10326000E7F8002000F0F6F8606CD0F888103046DF
:103270008847E22000F0DCF81D2000F0EBF8022087
:1032800000F0E8F8042000F0E5F8E02000F0D0F8C5
:10329000012000F0DFF8606CD0F8881028468847DD
:1032A000E02000F0C5F8032000F0D4F8606CD0F8FE
:1032B000881030468847012000F0BAF8606CD0F8DA
:1032C000881030468847E62000F0B2F8002000F071
:1032D000C1F8D92000F0BEF8162000F0BBF8B020ED
:1032E00000F0A6F8202000F0B5F8002000F0B2F8B9
:1032F000012000F0AFF8DF2000F0ACF8012000F072
:10330000A9F80F2000F0A6F8002000F0A3F8B420E0
:1033100000F08EF8022000F09DF8132000F09AF8DB
:10332000002000F097F82B2000F094F80A2000F01D
:1033300091F8002000F08EF8082000F08BF80020B3
:1033400000F088F8B62000F073F8012000F082F851
:10335000202000F07FF8002000F07CF80C2000F026
:1033600079F80A2000F076F8002000F073F80420C5
:1033700000F070F8BA2000F05BF8052000F06AF861
:10338000B82000F055F8072000F064F8012000F0A4
:1033900061F8362000F04CF8002000F05BF8616C1A
:1033A00032206843D1F888108847BE2000F040F8EA
:1033B000062000F04FF8802000F04CF8012000F0CB
:1033C00049F8F02000F046F8002000F043F8002013
:1033D00000F040F8D02000F02BF80D2000F03AF873
:1033E000F02000F025F8032000F034F8BDE8F05F8D
:1033F000292000F01DB8000001000020040000207A
:1034000008000020100000204000002000010020E3
:10341000200000200070004000D003400040024027
:10342000005002404B434F4C2075004010060020D6
:10343000064900220A614FF04023C3F8FC23044BE5
:10344000C3F8FC038A600220886070470040024095
:1034500000700040074904220A614FF04023020A2D
:10346000C3F8FC23044AC2F8FC0300208860022051
:10347000886070470040024000700040FDF782FA0B
:10348000FDF788FA1F48FDF77FFE0320FDF728FBB4
:10349000FDF7E0FCFEF7FAFAFFF71CFEE02127201B
:1034A000FDF7D8FD0020FDF7B1FB40F20F1340F20D
:1034B000DF1205210020FDF72DFC4FF485734FF43A
:1034C000ED7212210520FDF725FC0FA206219620A2
:1034D000FDF7AAFC12A23C219620FDF7A5FC164A96
:1034E000DC213220FDF7A0FCFDF72CFF06A206210F
:1034F0009620FDF799FC11A23C219620FDF794FC43
:10350000FEE70000403D80072D2D544D34433132FD
:10351000334720506C6174666F726D2D2D00000072
:1035200053544550393A204B455950414420746515
:103530007374696E67000000143900005465737479
:1035400020436F6D706C65746521000000B52DED32
:10355000048B83B041EC190BFDF76BF941EC180BB0
:1035600018EE100A18EE901A8DED008B002818BF87
:103570000120084320F00040C0F17F6000F1E040EE
:10358000C00F14D019EE101A19EE900A8DED009BA1
:10359000002918BF0121084320F00040C0F17F60DE
:1035A00000F1E040C00F04BF0120FFF7D1FC51EC57
:1035B000180B03B0BDEC048B00BD00000039000007
:1035C00000C0004000D0004000E0004000F000409B
:1035D0000000014000100140002001400030014087
:1035E000001800F0011800F0021800F0031800F0B5
:1035F000041800F0051800F0061800F0071800F095
:103600003F065B4F666D7D077F6F777C395E797112
:103610000102100F1112000003040E0D131400001C
:1036200005060C0B1516000007080A0917180000FC
:1036300000400040008005400050004000900540E0
:103640000060004000A005400070004000B0054050
:103650000040024000C005400050024000D005403C
:103660000060024000E005400070024000F00540AC
:1036700000D0034000000640001006400010064045
:103680000020064000200640003006400030064082
:1036900000400640004006400050064000500640F2
:1036A000006006400060064010E00F4014E00F404C
:1036B0001CE00F4010E00F4040E00F4044E00F409E
:1036C00048E00F4000E10F4004E10F4008E10F40E7
:1036D00010E10F4014E10F4018E10F4020E10F40CE
:1036E00024E10F4028E10F4040420F0000201C0061
:1036F00080841E0000802500999E3600004038001E
:1037000000093D0000803E0000004B00404B4C0093
:1037100000204E00808D5B0000C05D0000807000C6
:1037200000127A0000007D0080969800001BB70010
:103730000080BB00C0E8CE00647ADA000024F40008
:103740000000FA0080A81201002D310100366E0140
:1037500040787D0101001000003800F002001000E8
:10376000013800F000011000003400F000021000E9
:10377000013400F000041000023400F000011010C9
:10378000003C00F000021010003C00F0000410109B
:10379000003C00F001000020000800F002000020C2
:1037A000010800F004000020020800F008000020DA
:1037B000030800F010000020040800F020000020A2
:1037C000050800F040000020060800F080000020FE
:1037D000070800F000010020080800F000100010A9
:1037E000002000F000400010012000F01000100048
:1037F000004000F000010010004400F00002001042
:10380000014400F010000010001C00F02000001027
:10381000011C00F001001010000400F00200101064
:10382000010400F004001010020400F00800101061
:10383000030400F001000010001800F00200001066
:10384000011800F004000010021800F00020002011
:10385000000C00F001001020002800F0080000001B
:10386000000000F000101000010000F00000000057
:10387000000000000000F03F000000000000F83FE2
:1038800000000000000000000000004003B8E23F1C
:10389000000000000000000006D0CF43EBFD4C3ECE
:1038A000033333333333E33FFFAB6FDBB66DDB3FC3
:1038B0004D268F515555D53F01411DA96074D13F0B
:1038C00065DBC9934A86CD3FEF4E454A287ECA3F05
:1038D0003E5555555555C53F93BDBE166CC166BF87
:1038E0002CDE25AF6A56113FF16BD2C541BDBBBE80
:1038F000D0A4BE726937663E0000000000000000E0
:103900003031323334353637383961626364656655
:1039100000000000546970733A2050726573732080
:10392000746865206B657970616420616E64206ED7
:103930006F7465206F662074686520696E666F72AB
:103940006D6174696F6E206F6E207468652073639B
:103950007265656E000000007839000000000020EC
:1039600010060000D40800007C3C00001006002077
:1039700068020000402F0000110219F84A080121D6
:10398000331818E5486C241228082424247F1212C6
:103990001204392F280C1C2A2A0A0C1828282A2A33
:1039A0001C3611500C22251515152A585454542232
:1039B0001A0C2930080A76252911916EC5060604CD
:1039C000034D402010107125101020402B02040AD6
:1039D00029015D08080402913D6B1C1C6B5C79A1F8
:1039E0004A7FA3D1A95B0213FE4306063D804040F7
:1039F00020743C040402604C182442012A24F0196B
:103A00005F4A0E905408083E1A3C1B19326D080498
:103A1000427E105009201820404042221C500C20A9
:103A20003028242422227E2020788F7E0202021A4F
:103A300026202B38241089606C7E2222F379603A8C
:103A40002485523C390B4E64584040244029133998
:103A50003A490649A449063308042A409C870204CF
:103A6000081020405A7F0451491B392569701A46B5
:103A70000F6A10501D1C225A55016A2DB0500C08B7
:103A800008181414243C224242E71E1F2222221E40
:103A90000E5442221F2D7C4242010169302A1F1C14
:103AA00029015920B80C3F4212121E121202424242
:103AB0003F104C020207801B22223E5C71212240F3
:103AC0002AE73C2A7E0549706B3E08014A3E707A1F
:103AD000100133110F500C7722120A0E0A12122213
:103AE00022771A075A39014A42F31B7736012A2AEC
:103AF00001526B580CE346464A4A525252626247A0
:103B0000F04A410159802A3F7B2A3E4149A0592071
:103B10006E4D53321C60202A3E6F4B42C7901808EE
:103B20004242020418204016516B7F49B099D039A7
:103B3000016A3C10500922242414141808081B6B35
:103B400049015F55553622222220480A242418189C
:103B500018242442E7C09D2222141450300C7E21E8
:103B600020101008040442423F6A786D290132781F
:103B70001D020204040B1008101020202040409B5E
:103B80001E1001221E031C384412FF4A0695F150F4
:103B9000083C4278444242FC1F030202021A26CF2C
:103BA00093261A1B3844155344382D604040402E4C
:103BB0009C4264D840567E0202423C3EF08808088F
:103BC0007EAF923E38087C22221C023C42222960B1
:103BD0001B3A46405342E7230C0C9A0E301B303000
:103BE0007019DD19011A22D13930500872120A16E3
:103BF000122277492CC9602B7F920192B79A3B60C1
:103C000049A0290149A0412A1BE075221E0207395B
:103C1000D075447840E01C774C04018A1FC06E4286
:103C2000023C404270197A398019A9712A635F9366
:103C300062DC9008E74224241408089008EB494904
:103C400055552222C8087624181818246E306C188E
:103C500008089030087E22100808447E2BC02001FE
:103C60003A10061320C0DA1001113A068A192E29DB
:0C3C700001120604190C32C2B2FF000061
:04000005000002797C
:00000001FF
